{
  "_format": "hh-sol-artifact-1",
  "contractName": "TipJar",
  "sourceName": "contracts/TipJar.sol",
  "abi": [
    {
      "inputs": [],
      "stateMutability": "nonpayable",
      "type": "constructor"
    },
    {
      "anonymous": false,
      "inputs": [
        {
          "indexed": true,
          "internalType": "address",
          "name": "from",
          "type": "address"
        },
        {
          "indexed": false,
          "internalType": "uint256",
          "name": "amount",
          "type": "uint256"
        },
        {
          "indexed": false,
          "internalType": "string",
          "name": "message",
          "type": "string"
        }
      ],
      "name": "NewTip",
      "type": "event"
    },
    {
      "inputs": [],
      "name": "getAllTips",
      "outputs": [
        {
          "components": [
            {
              "internalType": "address",
              "name": "sender",
              "type": "address"
            },
            {
              "internalType": "uint256",
              "name": "amount",
              "type": "uint256"
            },
            {
              "internalType": "string",
              "name": "message",
              "type": "string"
            }
          ],
          "internalType": "struct TipJar.Tip[]",
          "name": "",
          "type": "tuple[]"
        }
      ],
      "stateMutability": "view",
      "type": "function"
    },
    {
      "inputs": [],
      "name": "getBalance",
      "outputs": [
        {
          "internalType": "uint256",
          "name": "",
          "type": "uint256"
        }
      ],
      "stateMutability": "view",
      "type": "function"
    },
    {
      "inputs": [
        {
          "internalType": "uint256",
          "name": "index",
          "type": "uint256"
        }
      ],
      "name": "getTip",
      "outputs": [
        {
          "internalType": "address",
          "name": "",
          "type": "address"
        },
        {
          "internalType": "uint256",
          "name": "",
          "type": "uint256"
        },
        {
          "internalType": "string",
          "name": "",
          "type": "string"
        }
      ],
      "stateMutability": "view",
      "type": "function"
    },
    {
      "inputs": [],
      "name": "owner",
      "outputs": [
        {
          "internalType": "address payable",
          "name": "",
          "type": "address"
        }
      ],
      "stateMutability": "view",
      "type": "function"
    },
    {
      "inputs": [
        {
          "internalType": "string",
          "name": "message",
          "type": "string"
        }
      ],
      "name": "tip",
      "outputs": [],
      "stateMutability": "payable",
      "type": "function"
    },
    {
      "inputs": [
        {
          "internalType": "uint256",
          "name": "",
          "type": "uint256"
        }
      ],
      "name": "tips",
      "outputs": [
        {
          "internalType": "address",
          "name": "sender",
          "type": "address"
        },
        {
          "internalType": "uint256",
          "name": "amount",
          "type": "uint256"
        },
        {
          "internalType": "string",
          "name": "message",
          "type": "string"
        }
      ],
      "stateMutability": "view",
      "type": "function"
    },
    {
      "inputs": [],
      "name": "withdraw",
      "outputs": [],
      "stateMutability": "nonpayable",
      "type": "function"
    }
  ],
  "bytecode": "0x6080604052348015600f57600080fd5b50336000806101000a81548173ffffffffffffffffffffffffffffffffffffffff021916908373ffffffffffffffffffffffffffffffffffffffff1602179055506113958061005f6000396000f3fe6080604052600436106100705760003560e01c80635b703f5c1161004e5780635b703f5c146100e25780638da5cb5b14610121578063a5c68c591461014c578063cb56393c1461018b57610070565b806312065fe014610075578063399ddbbd146100a05780633ccfd60b146100cb575b600080fd5b34801561008157600080fd5b5061008a6101a7565b60405161009791906108ad565b60405180910390f35b3480156100ac57600080fd5b506100b56101af565b6040516100c29190610aba565b60405180910390f35b3480156100d757600080fd5b506100e0610300565b005b3480156100ee57600080fd5b5061010960048036038101906101049190610b1c565b6104a7565b60405161011893929190610ba2565b60405180910390f35b34801561012d57600080fd5b50610136610633565b6040516101439190610c01565b60405180910390f35b34801561015857600080fd5b50610173600480360381019061016e9190610b1c565b610657565b60405161018293929190610ba2565b60405180910390f35b6101a560048036038101906101a09190610d51565b610739565b005b600047905090565b60606001805480602002602001604051908101604052809291908181526020016000905b828210156102f757838290600052602060002090600302016040518060600160405290816000820160009054906101000a900473ffffffffffffffffffffffffffffffffffffffff1673ffffffffffffffffffffffffffffffffffffffff1673ffffffffffffffffffffffffffffffffffffffff1681526020016001820154815260200160028201805461026690610dc9565b80601f016020809104026020016040519081016040528092919081815260200182805461029290610dc9565b80156102df5780601f106102b4576101008083540402835291602001916102df565b820191906000526020600020905b8154815290600101906020018083116102c257829003601f168201915b505050505081525050815260200190600101906101d3565b50505050905090565b60008054906101000a900473ffffffffffffffffffffffffffffffffffffffff1673ffffffffffffffffffffffffffffffffffffffff163373ffffffffffffffffffffffffffffffffffffffff161461038e576040517f08c379a000000000000000000000000000000000000000000000000000000000815260040161038590610e6c565b60405180910390fd5b6000479050600081116103d6576040517f08c379a00000000000000000000000000000000000000000000000000000000081526004016103cd90610ed8565b60405180910390fd5b60008060009054906101000a900473ffffffffffffffffffffffffffffffffffffffff1673ffffffffffffffffffffffffffffffffffffffff168260405161041d90610f29565b60006040518083038185875af1925050503d806000811461045a576040519150601f19603f3d011682016040523d82523d6000602084013e61045f565b606091505b50509050806104a3576040517f08c379a000000000000000000000000000000000000000000000000000000000815260040161049a90610f8a565b60405180910390fd5b5050565b600080606060018054905084106104f3576040517f08c379a00000000000000000000000000000000000000000000000000000000081526004016104ea90610ff6565b60405180910390fd5b60006001858154811061050957610508611016565b5b90600052602060002090600302016040518060600160405290816000820160009054906101000a900473ffffffffffffffffffffffffffffffffffffffff1673ffffffffffffffffffffffffffffffffffffffff1673ffffffffffffffffffffffffffffffffffffffff1681526020016001820154815260200160028201805461059290610dc9565b80601f01602080910402602001604051908101604052809291908181526020018280546105be90610dc9565b801561060b5780601f106105e05761010080835404028352916020019161060b565b820191906000526020600020905b8154815290600101906020018083116105ee57829003601f168201915b5050505050815250509050806000015181602001518260400151935093509350509193909250565b60008054906101000a900473ffffffffffffffffffffffffffffffffffffffff1681565b6001818154811061066757600080fd5b90600052602060002090600302016000915090508060000160009054906101000a900473ffffffffffffffffffffffffffffffffffffffff16908060010154908060020180546106b690610dc9565b80601f01602080910402602001604051908101604052809291908181526020018280546106e290610dc9565b801561072f5780601f106107045761010080835404028352916020019161072f565b820191906000526020600020905b81548152906001019060200180831161071257829003601f168201915b5050505050905083565b6000341161077c576040517f08c379a000000000000000000000000000000000000000000000000000000000815260040161077390611091565b60405180910390fd5b600160405180606001604052803373ffffffffffffffffffffffffffffffffffffffff16815260200134815260200183815250908060018154018082558091505060019003906000526020600020906003020160009091909190915060008201518160000160006101000a81548173ffffffffffffffffffffffffffffffffffffffff021916908373ffffffffffffffffffffffffffffffffffffffff16021790555060208201518160010155604082015181600201908161083e919061125d565b5050503373ffffffffffffffffffffffffffffffffffffffff167f2edbe3c16cfdf7d59d3418a7bebc467863d7aee89bc4da07262936cf15fb4971348360405161088992919061132f565b60405180910390a250565b6000819050919050565b6108a781610894565b82525050565b60006020820190506108c2600083018461089e565b92915050565b600081519050919050565b600082825260208201905092915050565b6000819050602082019050919050565b600073ffffffffffffffffffffffffffffffffffffffff82169050919050565b600061091f826108f4565b9050919050565b61092f81610914565b82525050565b61093e81610894565b82525050565b600081519050919050565b600082825260208201905092915050565b60005b8381101561097e578082015181840152602081019050610963565b60008484015250505050565b6000601f19601f8301169050919050565b60006109a682610944565b6109b0818561094f565b93506109c0818560208601610960565b6109c98161098a565b840191505092915050565b60006060830160008301516109ec6000860182610926565b5060208301516109ff6020860182610935565b5060408301518482036040860152610a17828261099b565b9150508091505092915050565b6000610a3083836109d4565b905092915050565b6000602082019050919050565b6000610a50826108c8565b610a5a81856108d3565b935083602082028501610a6c856108e4565b8060005b85811015610aa85784840389528151610a898582610a24565b9450610a9483610a38565b925060208a01995050600181019050610a70565b50829750879550505050505092915050565b60006020820190508181036000830152610ad48184610a45565b905092915050565b6000604051905090565b600080fd5b600080fd5b610af981610894565b8114610b0457600080fd5b50565b600081359050610b1681610af0565b92915050565b600060208284031215610b3257610b31610ae6565b5b6000610b4084828501610b07565b91505092915050565b610b5281610914565b82525050565b600082825260208201905092915050565b6000610b7482610944565b610b7e8185610b58565b9350610b8e818560208601610960565b610b978161098a565b840191505092915050565b6000606082019050610bb76000830186610b49565b610bc4602083018561089e565b8181036040830152610bd68184610b69565b9050949350505050565b6000610beb826108f4565b9050919050565b610bfb81610be0565b82525050565b6000602082019050610c166000830184610bf2565b92915050565b600080fd5b600080fd5b7f4e487b7100000000000000000000000000000000000000000000000000000000600052604160045260246000fd5b610c5e8261098a565b810181811067ffffffffffffffff82111715610c7d57610c7c610c26565b5b80604052505050565b6000610c90610adc565b9050610c9c8282610c55565b919050565b600067ffffffffffffffff821115610cbc57610cbb610c26565b5b610cc58261098a565b9050602081019050919050565b82818337600083830152505050565b6000610cf4610cef84610ca1565b610c86565b905082815260208101848484011115610d1057610d0f610c21565b5b610d1b848285610cd2565b509392505050565b600082601f830112610d3857610d37610c1c565b5b8135610d48848260208601610ce1565b91505092915050565b600060208284031215610d6757610d66610ae6565b5b600082013567ffffffffffffffff811115610d8557610d84610aeb565b5b610d9184828501610d23565b91505092915050565b7f4e487b7100000000000000000000000000000000000000000000000000000000600052602260045260246000fd5b60006002820490506001821680610de157607f821691505b602082108103610df457610df3610d9a565b5b50919050565b7f4e6f206175746f72697a61646f3a206e6f20657320656c2070726f706965746160008201527f72696f0000000000000000000000000000000000000000000000000000000000602082015250565b6000610e56602383610b58565b9150610e6182610dfa565b604082019050919050565b60006020820190508181036000830152610e8581610e49565b9050919050565b7f4e6f2068617920666f6e646f7320706172612072657469726172000000000000600082015250565b6000610ec2601a83610b58565b9150610ecd82610e8c565b602082019050919050565b60006020820190508181036000830152610ef181610eb5565b9050919050565b600081905092915050565b50565b6000610f13600083610ef8565b9150610f1e82610f03565b600082019050919050565b6000610f3482610f06565b9150819050919050565b7f5472616e73666572656e6369612066616c6c6964610000000000000000000000600082015250565b6000610f74601583610b58565b9150610f7f82610f3e565b602082019050919050565b60006020820190508181036000830152610fa381610f67565b9050919050565b7f496e6469636520696e76616c69646f0000000000000000000000000000000000600082015250565b6000610fe0600f83610b58565b9150610feb82610faa565b602082019050919050565b6000602082019050818103600083015261100f81610fd3565b9050919050565b7f4e487b7100000000000000000000000000000000000000000000000000000000600052603260045260246000fd5b7f4d6f6e746f2070726f70696e61206e6f2076616c69646f000000000000000000600082015250565b600061107b601783610b58565b915061108682611045565b602082019050919050565b600060208201905081810360008301526110aa8161106e565b9050919050565b60008190508160005260206000209050919050565b60006020601f8301049050919050565b600082821b905092915050565b6000600883026111137fffffffffffffffffffffffffffffffffffffffffffffffffffffffffffffffff826110d6565b61111d86836110d6565b95508019841693508086168417925050509392505050565b6000819050919050565b600061115a61115561115084610894565b611135565b610894565b9050919050565b6000819050919050565b6111748361113f565b61118861118082611161565b8484546110e3565b825550505050565b600090565b61119d611190565b6111a881848461116b565b505050565b5b818110156111cc576111c1600082611195565b6001810190506111ae565b5050565b601f821115611211576111e2816110b1565b6111eb846110c6565b810160208510156111fa578190505b61120e611206856110c6565b8301826111ad565b50505b505050565b600082821c905092915050565b600061123460001984600802611216565b1980831691505092915050565b600061124d8383611223565b9150826002028217905092915050565b61126682610944565b67ffffffffffffffff81111561127f5761127e610c26565b5b6112898254610dc9565b6112948282856111d0565b600060209050601f8311600181146112c757600084156112b5578287015190505b6112bf8582611241565b865550611327565b601f1984166112d5866110b1565b60005b828110156112fd578489015182556001820191506020850194506020810190506112d8565b8683101561131a5784890151611316601f891682611223565b8355505b6001600288020188555050505b505050505050565b6000604082019050611344600083018561089e565b81810360208301526113568184610b69565b9050939250505056fea2646970667358221220565eacb5e1b647bc0275bb44d936a0cbf16d3e3f7a7178b648b4b747660deabf64736f6c634300081c0033",
  "linkReferences": {},
  "deployedLinkReferences": {}
}